:100000000C943B010C946C010C946C010C946C01ED
:100010000C946C010C946C010C946C010C946C01AC
:100020000C946C010C946C010C946C010C946C019C
:100030000C946C010C946C010C946C010C946C018C
:100040000C946C010C946C010C946C010C946C017C
:100050000C946C010C946C010C946C010C949A043B
:100060000C946C010C9464040C943A040C946C0190
:100070000C946C010C946C010C946C010C946C014C
:100080000C946C010C946C010C946C010C946C013C
:100090000C946C010C946C010C946C010C946C012C
:1000A0000C946C010C946C010C946C010C946C011C
:1000B0000C946C010C946C010C946C010C946C010C
:1000C0000C946C010C946C010C946C010C946C01FC
:1000D0000C946C010C946C010C946C010C946C01EC
:1000E0000C946C010C9494030C945F020C942E02FB
:1000F0000C9401020C9468030C9459030C94510263
:100100000C9465030C946E030C9478030C946103B7
:100110000C9436040C948A030C947C030C94C50351
:100120000C94E4020C9453030C945D030C948E0322
:100130000C94E4040C943D020C9498030C949702E4
:100140000C9472030C94F6030C9480030C948603B5
:100150000C94930300002100240027002A002D00A6
:100160003000330001010000040107010A01000012
:100170002200250028002B002E003100340002014F
:100180000000050108010B010000200023002600EB
:1001900029002C002F00320000010000030106019D
:1001A00009010505050507050808080802020202FD
:1001B0000A0A080804040404010101010101010103
:1001C0000303030303030303040707070C0C0C0CCE
:1001D0000C0C0C0C020202020606060606060606B7
:1001E0000B0B0B0B0B0B0B0B010210202008081044
:1001F0002040102040800201020108040201010297
:10020000040810204080804020100804020180046F
:1002100002018040201008040201080402010102CA
:1002200004081020408001020408102040800000D3
:100230000A0B02090C0D0E08070304010000000060
:1002400000000000000000000000000000000000AE
:10025000000000000000000000001211100000006B
:10026000000000000000000000000000000000008E
:1002700000000000E40411241FBECFEFD1E2DEBF76
:10028000CDBF00E00CBF12E0A0E0B2E0EEE0FFE086
:1002900000E00BBF02C007900D92A633B107D9F75B
:1002A00023E0A6E3B2E001C01D92AB34B207E1F750
:1002B00011E0CBE3D1E000E006C021970109802FD7
:1002C000FE010E947D07CA33D10780E00807A9F725
:1002D0000E9471050C9485070C94000096E0899F9C
:1002E000D0011124A452BD4F90967C936E935F97DA
:1002F00091E091969C939197E0914903F0914A0384
:1003000090914803992339F0309751F0811108C03A
:100310008091F8021994309719F05C968C91FACF7D
:100320000895CF92DF92EF92FF920F931F9396E082
:10033000899FF0011124E452FD4F11A2278D30A1B5
:100340002130310551F178F02230310509F451C0E6
:100350002330310509F452C01F910F91FF90EF90A7
:10036000DF90CF9008956623B9F361E070E00E94BA
:100370006E012FB7F89480913B0290913C02A091BE
:100380003D02B0913E022FBF80933403909335031A
:10039000A0933603B0933703DFCF9FB7F894C09094
:1003A0003B02D0903C02E0903D02F0903E029FBFA5
:1003B00000913403109135032091360330913703B7
:1003C000C01AD10AE20AF30A0091460310914703CA
:1003D00030E020E00C151D052E053F0550F462E0CD
:1003E00070E01F910F91FF90EF90DF90CF900C94F1
:1003F0006E016111B1CF63E070E0F3CF70E060E0B7
:10040000F0CFAF92BF92CF92DF92EF92FF920F9315
:100410001F93CF93DF936C017B018B01040F151F9A
:10042000EB015E01AE18BF08C017D10759F0699102
:10043000D601ED91FC910190F081E02DC601199556
:10044000892B79F7C501DF91CF911F910F91FF9013
:10045000EF90DF90CF90BF90AF900895FC01538D47
:10046000448D252F30E0842F90E0821B930B54178E
:1004700010F0CF96089501970895FC01918D828D1B
:10048000981761F0A28DAE0FBF2FB11D5D968C91B4
:10049000928D9F5F9F73928F90E008958FEF9FEFF3
:1004A0000895FC01918D828D981731F0828DE80FAF
:1004B000F11D858D90E008958FEF9FEF0895FC0169
:1004C000918D228D892F90E0805C9F4F821B910936
:1004D0008F73992708958FE392E00E945F0221E0D5
:1004E000892B09F420E0822F0895FC01A48DA80F28
:1004F000B92FB11DA35ABF4F2C91848D90E0019666
:100500008F739927848FA689B7892C93A089B18985
:100510008C91837080648C93938D848D981306C026
:100520000288F389E02D80818F7D80830895EF928A
:10053000FF920F931F93CF93DF93EC0181E0888F9D
:100540009B8D8C8D98131AC0E889F989808185FF6D
:1005500015C09FB7F894EE89FF896083E889F9890F
:1005600080818370806480839FBF81E090E0DF9111
:10057000CF911F910F91FF90EF900895F62E0B8D64
:1005800010E00F5F1F4F0F731127E02E8C8D8E111F
:100590000CC00FB607FCFACFE889F989808185FF86
:1005A000F5CFCE010E947502F1CFEB8DEC0FFD2F40
:1005B000F11DE35AFF4FF0829FB7F8940B8FEA8941
:1005C000FB8980818062CFCFCF93DF93EC01888D50
:1005D0008823B9F0AA89BB89E889F9898C9185FDBE
:1005E00003C0808186FD0DC00FB607FCF7CF8C914C
:1005F00085FFF2CF808185FFEDCFCE010E9475028D
:10060000E9CFDF91CF91089580E090E0892B29F028
:100610000E946B0281110E94000080E090E0892B13
:1006200049F080E090E0892B29F00E9400008111C0
:100630000E94000080E090E0892B49F080E090E08B
:10064000892B29F00E94000081110E94000080E0A7
:1006500090E0892B49F080E090E0892B29F00E94FE
:10066000000081110C94000008958150823108F03F
:100670005AC0E82FF0E08827EF5BFC4F8F4F0C94B7
:100680007D0761036503530359035D039303680307
:100690006E03720378037C03800386038A0393034B
:1006A0008E0394039803809180008F77809380005D
:1006B0000895809180008F7DF9CF80918000877FA1
:1006C000F5CF84B58F7784BD089584B58F7DFBCF3A
:1006D0008091B0008F778093B00008958091B00032
:1006E0008F7DF9CF809190008F778093900008954F
:1006F000809190008F7DF9CF80919000877FF5CF1A
:100700008091A0008F778093A00008958091A00031
:100710008F7DF9CF8091A000877FF5CF8091200158
:100720008F77809320010895809120018F7DF9CFEC
:1007300080912001877FF5CFCF93DF93282F30E082
:10074000F901E25DFD4F8491F901E851FE4FD4912A
:10075000F901EE55FE4FC491CC23A1F081110E9406
:100760003503EC2FF0E0EE0FFF1FE857FE4FA59189
:10077000B491EC91ED2381E090E009F480E0DF9109
:10078000CF91089580E090E0FACF862F0C949C03DF
:100790001F93CF93DF93282F30E0F901E25DFD4FE7
:1007A0008491F901E851FE4FD491F901EE55FE4FC5
:1007B000C491CC23A9F0162F81110E943503EC2F90
:1007C000F0E0EE0FFF1FE259FE4FA591B4918FB7F5
:1007D000F894EC91111108C0D095DE23DC938FBF03
:1007E000DF91CF911F910895DE2BF8CF862F642FD4
:1007F0000C94C803CF93DF9390E0FC01E851FE4FC7
:1008000024918E559E4FFC0184918823C9F090E07D
:10081000880F991FFC01EC5AFE4FA591B491FC0181
:10082000E259FE4FC591D49161110DC09FB7F89464
:100830008C91209582238C938881282328839FBFC5
:10084000DF91CF910895623051F49FB7F8943C91B5
:10085000822F809583238C93E8812E2BEFCF8FB747
:10086000F894EC912E2B2C938FBFEACF862F642F18
:100870000C94FA031F920F920FB60F9211240BB62D
:100880000F922F933F934F935F936F937F938F9329
:100890009F93AF93BF93EF93FF938FE392E00E94F8
:1008A0007502FF91EF91BF91AF919F918F917F91D1
:1008B0006F915F914F913F912F910F900BBE0F90D1
:1008C0000FBE0F901F9018951F920F920FB60F92A8
:1008D00011240BB60F922F938F939F93EF93FF9357
:1008E000E0914F02F09150028081E0915502F09129
:1008F000560282FD1DC09081809158028F5F8F73D8
:1009000020915902821741F0E0915802F0E0E15C39
:10091000FD4F958F80935802FF91EF919F918F919A
:100920002F910F900BBE0F900FBE0F901F90189538
:100930008081F2CF1F920F920FB60F9211242F9346
:100940003F938F939F93AF93BF9380913B0290917E
:100950003C02A0913D02B0913E0230913A0223E068
:10096000230F2D3758F50196A11DB11D20933A0292
:1009700080933B0290933C02A0933D02B0933E02D1
:100980008091360290913702A0913802B0913902DD
:100990000196A11DB11D8093360290933702A0935A
:1009A0003802B0933902BF91AF919F918F913F91DF
:1009B0002F910F900FBE0F901F90189526E8230FD0
:1009C0000296A11DB11DD2CF109242021092410297
:1009D00088EE93E0A0E0B0E080934302909344025D
:1009E000A0934502B09346028EE192E090934002BC
:1009F00080933F0285EC90E090934C0280934B02F1
:100A000084EC90E090934E0280934D0280EC90E055
:100A10009093500280934F0281EC90E090935202A9
:100A20008093510282EC90E09093540280935302A1
:100A300086EC90E0909356028093550210925802F3
:100A40001092590210925A0210925B021092DE022A
:100A50001092E2021092E1021092E30280E392E02F
:100A60009093DD028093DC02E8EFF2E010821482C2
:100A700013821582369683E0E433F807B9F786E0EF
:100A800092E090933F0380933E0382E092E0909344
:100A900041038093400384E08093420380934303A7
:100AA0008AE092E090933D0380933C038AE090E0DB
:100AB000909345038093440384EF91E09093470320
:100AC0008093460310924A03109249031092380310
:100AD0001092390310923A0310923B03109248038C
:100AE0000895789484B5826084BD84B5816084BDA6
:100AF00085B5826085BD85B5816085BD80916E00BC
:100B0000816080936E0010928100809181008260EC
:100B10008093810080918100816080938100809129
:100B200080008160809380008091B1008460809318
:100B3000B1008091B00081608093B00080919100FD
:100B400082608093910080919100816080939100F8
:100B5000809190008160809390008091A1008260DC
:100B60008093A1008091A10081608093A100809179
:100B7000A00081608093A000809121018260809319
:100B800021018091210181608093210180912001C8
:100B900081608093200180917A00846080937A0044
:100BA00080917A00826080937A0080917A008160DF
:100BB00080937A0080917A00806880937A00109206
:100BC000C100E0914F02F091500282E08083E091F9
:100BD0004B02F0914C021082E0914D02F0914E02D6
:100BE0008FEC808310925702E0915302F0915402EF
:100BF00086E08083E0915102F09152028081806111
:100C00008083E0915102F09152028081886080835C
:100C1000E0915102F0915202808180688083E091DE
:100C20005102F091520280818F7D8083812C912C22
:100C30005401839444244A94542C66246394712C64
:100C400051E0509348038FB7F89440913B02509184
:100C50003C0260913D0270913E028FBF809138034B
:100C600090913903A0913A03B0913B03481B590B73
:100C70006A0B7B0B8091440390914503B0E0A0E0A8
:100C800084179507A607B70708F00AC1C0E080914E
:100C90004203C81760F4E0913E03F0913F03EC0F6C
:100CA000F11D62E080810E94FA03CF5FF0CF312C0A
:100CB00080914303381608F05FC0032D10E0E091E7
:100CC0004003F0914103E00FF11F61E080810E9439
:100CD000FA03E0914003F0914103E00FF11F60E05F
:100CE00080810E94C803D501C401032C04C0880F71
:100CF000991FAA1FBB1F0A94D2F76C017C01E094D4
:100D0000F094212C809142032816F8F4C22DD0E0F3
:100D1000E0913E03F0913F03EC0FFD1F80810E94A4
:100D20009C032496CC0FDD1FC452DD4F892B41F468
:100D3000888199818C299D29998388832394E2CF86
:100D4000888199818E219F21F7CFE0914003F09116
:100D50004103E00FF11F61E080810E94C803809190
:100D6000400390914103080F191F60E0F801808152
:100D70000E94FA0333949CCF0CED12E0E8018F8DB2
:100D800098A1892B21F41C8E5E8E4D8E19A2269679
:100D9000F3E0C831DF0799F7D12C80914203D816D0
:100DA00008F053C0C12CED2CF12CEE0CFF1CC70138
:100DB0008C519D4F7C0120914303C21608F043C023
:100DC000F701608171810C2C02C0769567950A94B9
:100DD000E2F7D29E900111242C0D311DECEDF2E0D2
:100DE00080E0458D568D2417350709F484C08F5F48
:100DF00036968A30B1F760FF24C0ECEDF2E090E067
:100E000080E0448D411118C0E0913C03F0913D0316
:100E1000E20FF31F408156E0589FF001599FF00DFB
:100E20001124E452FD4F448F368F258F10A2178E68
:100E300061E00E94910105C0019636968A309105C5
:100E400001F7C394B8CFD394A8CF80E0F80191A163
:100E50009111892F0A5F1F4FC017D107B9F79FB7AC
:100E6000F89440913B0250913C0260913D02709198
:100E70003E029FBF409338035093390360933A0377
:100E800070933B03882361F08091FD02882341F039
:100E90008091FB029091FC02C091F802019719F039
:100EA00010924803C0E08FE392E00E945F02892B1A
:100EB000C9F08FE392E00E943D028134910591F4E4
:100EC0007092010260920002CC2349F06C2F8FE3F4
:100ED00092E00E94970210920102109200020E947A
:100EE0000403AECECC23D9F380910002909101028D
:100EF0000197A9F7EBCF61709CCFEE0FFF1F881F02
:0E0F00008BBF0790F691E02D1994F894FFCF67
:100F0E0001001A1B1C1D161718193738392F3435C6
:100F1E00362A3132332D6F303D2B00000000970200
:100F2E0001022E02E4025F023D02510200000000A7
:060F3E003604F603C503B2
:00000001FF
