:100000000C942E010C945F010C945F010C945F0121
:100010000C945F010C945F010C945F010C945F01E0
:100020000C945F010C945F010C945F010C945F01D0
:100030000C945F010C945F010C945F010C945F01C0
:100040000C945F010C945F010C945F010C945F01B0
:100050000C945F010C945F010C945F010C942205D9
:100060000C945F010C94EC040C94C2040C945F019A
:100070000C945F010C945F010C945F010C945F0180
:100080000C945F010C945F010C945F010C945F0170
:100090000C945F010C945F010C945F010C945F0160
:1000A0000C945F010C945F010C945F010C945F0150
:1000B0000C945F010C945F010C945F010C945F0140
:1000C0000C945F010C945F010C945F010C945F0130
:1000D0000C945F010C945F010C945F010C945F0120
:1000E0000C945F010C942C030C94D0010C94E90245
:1000F0000C9480010C94FB020C9436030C941A03AC
:100100000C9441030C9414030C94BC040C940A0347
:100110000C94FF020C9430030C9463020C941003B3
:100120000C946C050C94DE010C9407030C944003B2
:100130000C94AD010C9416020C9428030C94220329
:100140000C94E4020C941E030C94BC010C94030365
:100150000C943A0300000A0B02090C0D0E08070369
:10016000040100000000000000000000000000008A
:10017000000000000000000000000000000000007F
:10018000121110000000000000000000000000003C
:100190000000000000000000000000002200250018
:1001A00028002B002E003100340002010000050160
:1001B00008010B0100002100240027002A002D0067
:1001C0003000330001010000040107010A010505A8
:1001D0000505070508080808020202020A0A0808BD
:1001E00004040404010101010101010103030303EB
:1001F00003030303040707070C0C0C0C0C0C0C0C7A
:100200000202020206060606060606060B0B0B0B8A
:100210000B0B0B0B010210202008081020401020AF
:1002200040800201020108040201010204081020BA
:1002300040808040201008040201800402018040B8
:100240002010080402010804020101020408102021
:10025000408001020408102040806C0511241FBE5C
:10026000CFEFD1E2DEBFCDBF00E00CBF12E0A0E0D7
:10027000B2E0E4E6F1E100E00BBF02C007900D92AE
:10028000AE32B107D9F723E0AEE2B2E001C01D9271
:10029000A530B207E1F711E0CEE2D1E000E006C000
:1002A00021970109802FFE010E94A808CD32D107B5
:1002B00080E00807A9F70E94B6050C94B0080C94DA
:1002C000000090E0FC01EC5EFD4F249182539E4FB4
:1002D000FC018491882399F090E0880F991FFC011C
:1002E000EC54FE4FA591B491FC01E656FE4F85916A
:1002F00094918FB7F894EC91E22BEC938FBF089513
:10030000AF92BF92CF92DF92EF92FF920F931F9323
:10031000CF93DF936C017B018B01040F151FEB0161
:100320005E01AE18BF08C017D10759F06991D60118
:10033000ED91FC910190F081E02DC6011995892B7A
:1003400079F7C501DF91CF911F910F91FF90EF9049
:10035000DF90CF90BF90AF900895FC01538D448DF6
:10036000252F30E0842F90E0821B930B541710F060
:10037000CF96089501970895FC01918D828D98176D
:1003800061F0A28DAE0FBF2FB11D5D968C91928D45
:100390009F5F9F73928F90E008958FEF9FEF089576
:1003A000FC01918D828D981731F0828DE80FF11D3F
:1003B000858D90E008958FEF9FEF0895FC01918D5A
:1003C000228D892F90E0805C9F4F821B91098F7353
:1003D0009927089580E592E00E94DE0121E0892BB3
:1003E00009F420E0822F0895FC01A48DA80FB92FF5
:1003F000B11DA35ABF4F2C91848D90E001968F734D
:100400009927848FA689B7892C93A089B1898C916B
:10041000837080648C93938D848D981306C00288BA
:10042000F389E02D80818F7D80830895EF92FF9284
:100430000F931F93CF93DF93EC0181E0888F9B8D07
:100440008C8D98131AC0E889F989808185FF15C0C1
:100450009FB7F894EE89FF896083E889F9898081E4
:100460008370806480839FBF81E090E0DF91CF91B3
:100470001F910F91FF90EF900895F62E0B8D10E0D5
:100480000F5F1F4F0F731127E02E8C8D8E110CC044
:100490000FB607FCFACFE889F989808185FFF5CF8F
:1004A000CE010E94F401F1CFEB8DEC0FFD2FF11D79
:1004B000E35AFF4FF0829FB7F8940B8FEA89FB89CC
:1004C00080818062CFCFCF93DF93EC01888D88232A
:1004D000B9F0AA89BB89E889F9898C9185FD03C0A7
:1004E000808186FD0DC00FB607FCF7CF8C9185FF8C
:1004F000F2CF808185FFEDCFCE010E94F401E9CFDC
:10050000DF91CF91089580E090E0892B29F00E943F
:10051000EA0181110E94000080E090E0892B49F0FF
:1005200080E090E0892B29F00E94000081110E9458
:10053000000080E090E0892B49F080E090E0892B7A
:1005400029F00E94000081110E94000080E090E0EC
:10055000892B49F080E090E0892B29F00E9400006F
:1005600081110C9400000895282F30E0F901EC5A15
:10057000FE4F9491F901EC5EFD4F449122533E4FA2
:10058000F9012491222309F435C0992311F19150E6
:100590009231F8F4E92FF0E08827EE52FD4F8F4FAB
:1005A0000C94A80803030703E402FB02FF02E9021C
:1005B0000A03100314031A031E03220328032C0347
:1005C000E902300336033A03809180008F778093ED
:1005D0008000E22FF0E0EE0FFF1FE656FE4FA591E0
:1005E000B4918FB7F894EC91611148C040954E23B7
:1005F0004C938FBF0895809180008F7DE8CF8091CC
:100600008000877FE4CF84B58F7784BDE2CF84B547
:100610008F7DFBCF8091B0008F778093B000D9CFD2
:100620008091B0008F7DF9CF809190008F7780937B
:100630009000CFCF809190008F7DF9CF8091900076
:10064000877FF5CF8091A0008F778093A000C1CFE6
:100650008091A0008F7DF9CF8091A000877FF5CF9A
:10066000809120018F7780932001B3CF809120016A
:100670008F7DF9CF80912001877FF5CF4E2BB8CFAA
:10068000089590E080E00895ECE3F2E0118210829A
:10069000178216821586148613821282118610869E
:1006A000178616861582148213861286118A108A7E
:1006B00083E090E0909338028093370290933A025F
:1006C0008093390261E480E592E00E94160281E0A5
:1006D00090E090930102809300020895FC01019044
:1006E0000020E9F73197AF01481B590BBC018DEE93
:1006F00092E00C948001CF93DF93EC0160E08E8157
:100700000E94B40261E08E810E94B40260E08E819A
:100710000E94B4028BE891E00197F1F7DF91CF914D
:100720000895CF92DF92EF92FF920F931F93CF9392
:10073000DF936C017C0187E0E80EF11CD0E0C0E0A3
:10074000062F10E0B8010C2E02C0759567950A942B
:10075000E2F76170F70181917F010E94B402219656
:10076000C430D10579F7C601DF91CF911F910F9168
:10077000FF90EF90DF90CF900C947B03CF92DF92AD
:10078000EF92FF920F931F93CF93DF93EC01F62E1E
:10079000642F8C810E94B4028D818F3F19F060E03C
:1007A0000E94B4020F2D10E08F8584FF25C06E01DA
:1007B00087E0C80ED11CF12CE12CB8010E2C02C030
:1007C000759567950A94E2F76170F60181916F0162
:1007D0000E94B402FFEFEF1AFF0A88E0E816F10466
:1007E00061F7CE01DF91CF911F910F91FF90EF90B4
:1007F000DF90CF900C947B03B80184E075956795EA
:100800008A95E1F7CE010E9491036F2DCE01DF9111
:10081000CF911F910F91FF90EF90DF90CF900C94AC
:10082000910340E0682F8DEE92E00C94BE0381E0CE
:100830000E9411048BE39FE10197F1F70895CF9394
:10084000DF93813029F09091FC0298609093FC0234
:10085000809300031092010380E48093020380E1FF
:100860008093030380E5809304038091F1020E944A
:1008700061018091F2028F3F11F00E94610180912D
:10088000F3020E946101CDEED2E09E012D5E324066
:100890008091FC0284FD0AC084E090E02196281734
:1008A00039073CF48E810E946101EFCF88E090E02F
:1008B000F5CF8BE39DE00197F1F760E08091F102C5
:1008C0000E94B40260E08091F3020E94B402809121
:1008D000F2028F3F19F060E00E94B4028091FC02A6
:1008E00084FD34C063E08DEE92E00E949103CBE47E
:1008F000D6E4CE010197F1F763E08DEE92E00E941D
:1009000091032197F1F763E08DEE92E00E9491034D
:1009100083E592E00197F1F762E08DEE92E00E94AC
:1009200091038091FC0280620E94110484E0809314
:10093000FD028CE00E9411040E94170482E0809363
:10094000FE0286E0DF91CF910C94110480620E9438
:1009500011048BE496E40197F1F78091FC02806228
:100960000E94110483E592E00197F1F78091FC0267
:1009700080620E941104D5CF41E00E94BE0381E055
:1009800090E008951F920F920FB60F9211240BB6AC
:100990000F922F933F934F935F936F937F938F9318
:1009A0009F93AF93BF93EF93FF9380E592E00E94F4
:1009B000F401FF91EF91BF91AF919F918F917F9142
:1009C0006F915F914F913F912F910F900BBE0F90C0
:1009D0000FBE0F901F9018951F920F920FB60F9297
:1009E00011240BB60F922F938F939F93EF93FF9346
:1009F000E0916002F09161028081E0916602F091E5
:100A0000670282FD1DC09081809169028F5F8F73A4
:100A100020916A02821741F0E0916902F0E0E05B08
:100A2000FD4F958F80936902FF91EF919F918F9178
:100A30002F910F900BBE0F900FBE0F901F90189527
:100A40008081F2CF1F920F920FB60F9211242F9335
:100A50003F938F939F93AF93BF9380913302909175
:100A60003402A0913502B09136023091320223E077
:100A7000230F2D3758F50196A11DB11D2093320289
:100A80008093330290933402A0933502B0933602E0
:100A900080912E0290912F02A0913002B0913102EC
:100AA0000196A11DB11D80932E0290932F02A09359
:100AB0003002B0933102BF91AF919F918F913F91DE
:100AC0002F910F900FBE0F901F90189526E8230FBF
:100AD0000296A11DB11DD2CFE0E5F2E01382128291
:100AE00088EE93E0A0E0B0E084839583A683B7838B
:100AF00086E092E09183808385EC90E095878487FF
:100B000084EC90E09787868780EC90E0918B808BD7
:100B100081EC90E0938B828B82EC90E0958B848BC0
:100B200086EC90E0978B868B118E128E138E148E2E
:100B3000EDEEF2E01382128288E192E091838083ED
:100B400085E184838FEF858384E1868381E18783D8
:100B500080E180878FE081878EE08287138614860C
:100B600015861686178681E00C941F04789484B548
:100B7000826084BD84B5816084BD85B5826085BD99
:100B800085B5816085BD80916E00816080936E0027
:100B90001092810080918100826080938100809119
:100BA00081008160809381008091800081608093CA
:100BB00080008091B10084608093B1008091B0008A
:100BC00081608093B0008091910082608093910059
:100BD000809191008160809391008091900081606C
:100BE000809390008091A10082608093A100809109
:100BF000A10081608093A1008091A000816080931A
:100C0000A0008091210182608093210180912101C7
:100C10008160809321018091200181608093200177
:100C200080917A00846080937A0080917A0082605B
:100C300080937A0080917A00816080937A0080911D
:100C40007A00806880937A001092C100E09160027F
:100C5000F091610282E08083E0915C02F0915D029C
:100C60001082E0915E02F0915F028FEC808310921F
:100C70006802E0916402F091650286E08083E09171
:100C80006202F0916302808180618083E091620260
:100C9000F0916302808188608083E0916202F0912C
:100CA0006302808180688083E0916202F091630238
:100CB00080818F7D808384E00E941F040E94440312
:100CC000EE24E394F12C32E0C32ED12C80E592E0A7
:100CD0000E94DE01892B09F42BC20E941704809127
:100CE0004E0290914F02019690934F0280934E02D4
:100CF00080E592E00E94BC01C0910002D091010207
:100D0000813309F041C0D0934102C09340028093E7
:100D10003B0210923A02109239020091390210916E
:100D20003A02033011050CF0C5C01092380210923F
:100D30003702A0903702B090380283E0A816B104C1
:100D40000CF09FC0F501EE0FFF1FEA0DFB1DE00F39
:100D5000F11FEE0FFF1FE45CFD4F8081918141E0A8
:100D600068E58130910521F06FE4029709F060E2B7
:100D70008DEE92E00E94BE038FEFA81AB80AB092DF
:100D80003802A0923702D5CF823329F4D09347029C
:100D9000C0934602BCCF833329F4D0934D02C09355
:100DA0004C02B5CF843329F4D0933F02C0933E0266
:100DB000AECF853329F4D0934502C0934402A7CF28
:100DC000863329F4D0934B02C0934A02A0CF8733D5
:100DD00029F4D0933D02C0933C0299CF883329F483
:100DE000D0934302C093420292CF893329F4D09327
:100DF0004902C09348028BCF803309F088CF90918D
:100E00003B02913329F410924102109240027FCFAD
:100E1000923329F4109247021092460278CF93330E
:100E200029F410924D0210924C0271CF943329F4A0
:100E300010923F0210923E026ACF953329F410922D
:100E400045021092440263CF963329F410924B026C
:100E500010924A025CCF973329F410923D0210920F
:100E60003C0255CF983329F410924302109242026B
:100E70004ECF993309F04BCF10924902109248029D
:100E800046CFE1E0E00FE43008F0E3E080910003BA
:100E9000E81710F0EFEFE80FF0E0E351FD4F848921
:100EA00080680E9411040F5F1F4F10933A02009355
:100EB000390233CFC130D10509F03DC162E480E58C
:100EC00092E00E941602D0920102C092000280912C
:100ED0003C0290913D0220913E0230913F028217E8
:100EE0009307E1F420914002309141028217930769
:100EF000A9F4892B99F00E94170480E292E00E94E5
:100F00006E0360913C02605D8DEE92E00E94BC0435
:100F100087E292E00E946E030E94440380913C02AB
:100F200090913D0220914202309143028217930733
:100F3000E1F4209148023091490282179307A9F405
:100F4000892B99F00E94170480E292E00E946E03C0
:100F500060913C02605D8DEE92E00E94BC0487E2ED
:100F600092E00E946E030E9444038091440290919B
:100F7000450220913C0230913D0282179307E1F433
:100F800020914C0230914D0282179307A9F4892BCE
:100F900099F00E94170480E292E00E946E03609133
:100FA0004402605D8DEE92E00E94BC0487E292E014
:100FB0000E946E030E944403809144029091450276
:100FC00020913E0230913F0282179307E1F4209175
:100FD0004A0230914B0282179307A9F4892B99F0AA
:100FE0000E94170480E292E00E946E036091440226
:100FF000605D8DEE92E00E94BC0487E292E00E9468
:101000006E030E9444038091440290914502209116
:1010100046023091470282179307A9F4892B99F071
:101020000E94170480E292E00E946E0360914402E5
:10103000605D8DEE92E00E94BC0487E292E00E9427
:101040006E030E94440380914402909145022091D6
:1010500040023091410282179307E1F42091480247
:101060003091490282179307A9F4892B99F00E94C5
:10107000170480E292E00E946E0360914402605D7A
:101080008DEE92E00E94BC0487E292E00E946E0323
:101090000E94440380914C0290914D02209146029F
:1010A0003091470282179307E1F42091400230917A
:1010B000410282179307A9F4892B99F00E94170423
:1010C00080E292E00E946E0360914C02605D8DEEC2
:1010D00092E00E94BC0487E292E00E946E030E94AC
:1010E000440380914C0290914D0220914A0230912C
:1010F0004B0282179307E1F4209148023091490294
:1011000082179307A9F4892B99F00E94170480E2B3
:1011100092E00E946E0360914C02605D8DEE92E061
:101120000E94BC0487E292E00E946E030E94440386
:101130000E948302CBCD229709F0C9CE61E480E5FD
:1011400092E00E941602F0920102E0920002BFCEED
:10115000EE0FFF1F881F8BBF0790F691E02D1994AB
:04116000F894FFCF31
:1011640001000000000016028001AD016302DE01EF
:10117400BC01D00100000000BC0480014103400315
:0E118400506C617965720057696E203A29003F
:00000001FF
